:02000000FC2BD7
:1006C00083169F01073083129A001A308316850023
:1006D000DA308505950180308100DA308312850596
:1006E0008316960101308312900010309C00013077
:1006F000F00000300C180130013E802B0310F00D8B
:10070000FF3E031D7E2B7008FF3A8C050130F00080
:10071000003083160C180130013E902B0310F00DB1
:10072000FF3E031D8E2B7008FF3A8C050130F00050
:1007300000300B1B0130013E9F2B0310F00DFF3EDC
:10074000031D9D2B0130F10000308B1B0130013E59
:10075000AB2B0310F10DFF3E031DA92B7108700494
:10076000FF3A8B0583120508F0000310700CF200AD
:100770000130F2050508F00004300310F00CFF3ED4
:10078000031DBD2B7008F3000130F3050130F400A8
:1007900072030319CC2BCD2BD32B73080319D12B48
:1007A000D22BD32BF4017408F50075080319D92B4B
:1007B000DA2BDD2BFE308505DE2B05140C1CE12B1E
:1007C000E22BB22B0C100130F60714307602031C1A
:1007D000EA2BEB2BB22BF6017503031DF02BF12B4B
:1007E000F62B20308506FB308505B22B04308506BC
:1007F000DF308505B22B0028F601F7018301602B5D
:02400E00D43CA0
:00000001FF
